{
	"data": {
		"bytecode": {
			"linkReferences": {},
			"object": "6080604052600080546001600160a01b0319163317905534801561002257600080fd5b506101fd806100326000396000f3fe608060405234801561001057600080fd5b506004361061004c5760003560e01c8063445df0ac14610051578063483a93101461006d5780638da5cb5b14610080578063fdacd576146100ab575b600080fd5b61005a60015481565b6040519081526020015b60405180910390f35b61005a61007b36600461015f565b6100c0565b600054610093906001600160a01b031681565b6040516001600160a01b039091168152602001610064565b6100be6100b936600461015f565b6100e0565b005b60006100ce6103e883610178565b6100da9061039f61019a565b92915050565b6000546001600160a01b0316331461015a5760405162461bcd60e51b815260206004820152603360248201527f546869732066756e6374696f6e206973207265737472696374656420746f207460448201527234329031b7b73a3930b1ba13b99037bbb732b960691b606482015260840160405180910390fd5b600155565b60006020828403121561017157600080fd5b5035919050565b60008261019557634e487b7160e01b600052601260045260246000fd5b500490565b60008160001904831182151516156101c257634e487b7160e01b600052601160045260246000fd5b50029056fea2646970667358221220783365b7338c6cc2119adafaa4802a390bcf2bf29f3bf1272faf96395d466d8464736f6c63430008070033",
			"opcodes": "PUSH1 0x80 PUSH1 0x40 MSTORE PUSH1 0x0 DUP1 SLOAD PUSH1 0x1 PUSH1 0x1 PUSH1 0xA0 SHL SUB NOT AND CALLER OR SWAP1 SSTORE CALLVALUE DUP1 ISZERO PUSH2 0x22 JUMPI PUSH1 0x0 DUP1 REVERT JUMPDEST POP PUSH2 0x1FD DUP1 PUSH2 0x32 PUSH1 0x0 CODECOPY PUSH1 0x0 RETURN INVALID PUSH1 0x80 PUSH1 0x40 MSTORE CALLVALUE DUP1 ISZERO PUSH2 0x10 JUMPI PUSH1 0x0 DUP1 REVERT JUMPDEST POP PUSH1 0x4 CALLDATASIZE LT PUSH2 0x4C JUMPI PUSH1 0x0 CALLDATALOAD PUSH1 0xE0 SHR DUP1 PUSH4 0x445DF0AC EQ PUSH2 0x51 JUMPI DUP1 PUSH4 0x483A9310 EQ PUSH2 0x6D JUMPI DUP1 PUSH4 0x8DA5CB5B EQ PUSH2 0x80 JUMPI DUP1 PUSH4 0xFDACD576 EQ PUSH2 0xAB JUMPI JUMPDEST PUSH1 0x0 DUP1 REVERT JUMPDEST PUSH2 0x5A PUSH1 0x1 SLOAD DUP2 JUMP JUMPDEST PUSH1 0x40 MLOAD SWAP1 DUP2 MSTORE PUSH1 0x20 ADD JUMPDEST PUSH1 0x40 MLOAD DUP1 SWAP2 SUB SWAP1 RETURN JUMPDEST PUSH2 0x5A PUSH2 0x7B CALLDATASIZE PUSH1 0x4 PUSH2 0x15F JUMP JUMPDEST PUSH2 0xC0 JUMP JUMPDEST PUSH1 0x0 SLOAD PUSH2 0x93 SWAP1 PUSH1 0x1 PUSH1 0x1 PUSH1 0xA0 SHL SUB AND DUP2 JUMP JUMPDEST PUSH1 0x40 MLOAD PUSH1 0x1 PUSH1 0x1 PUSH1 0xA0 SHL SUB SWAP1 SWAP2 AND DUP2 MSTORE PUSH1 0x20 ADD PUSH2 0x64 JUMP JUMPDEST PUSH2 0xBE PUSH2 0xB9 CALLDATASIZE PUSH1 0x4 PUSH2 0x15F JUMP JUMPDEST PUSH2 0xE0 JUMP JUMPDEST STOP JUMPDEST PUSH1 0x0 PUSH2 0xCE PUSH2 0x3E8 DUP4 PUSH2 0x178 JUMP JUMPDEST PUSH2 0xDA SWAP1 PUSH2 0x39F PUSH2 0x19A JUMP JUMPDEST SWAP3 SWAP2 POP POP JUMP JUMPDEST PUSH1 0x0 SLOAD PUSH1 0x1 PUSH1 0x1 PUSH1 0xA0 SHL SUB AND CALLER EQ PUSH2 0x15A JUMPI PUSH1 0x40 MLOAD PUSH3 0x461BCD PUSH1 0xE5 SHL DUP2 MSTORE PUSH1 0x20 PUSH1 0x4 DUP3 ADD MSTORE PUSH1 0x33 PUSH1 0x24 DUP3 ADD MSTORE PUSH32 0x546869732066756E6374696F6E206973207265737472696374656420746F2074 PUSH1 0x44 DUP3 ADD MSTORE PUSH19 0x34329031B7B73A3930B1BA13B99037BBB732B9 PUSH1 0x69 SHL PUSH1 0x64 DUP3 ADD MSTORE PUSH1 0x84 ADD PUSH1 0x40 MLOAD DUP1 SWAP2 SUB SWAP1 REVERT JUMPDEST PUSH1 0x1 SSTORE JUMP JUMPDEST PUSH1 0x0 PUSH1 0x20 DUP3 DUP5 SUB SLT ISZERO PUSH2 0x171 JUMPI PUSH1 0x0 DUP1 REVERT JUMPDEST POP CALLDATALOAD SWAP2 SWAP1 POP JUMP JUMPDEST PUSH1 0x0 DUP3 PUSH2 0x195 JUMPI PUSH4 0x4E487B71 PUSH1 0xE0 SHL PUSH1 0x0 MSTORE PUSH1 0x12 PUSH1 0x4 MSTORE PUSH1 0x24 PUSH1 0x0 REVERT JUMPDEST POP DIV SWAP1 JUMP JUMPDEST PUSH1 0x0 DUP2 PUSH1 0x0 NOT DIV DUP4 GT DUP3 ISZERO ISZERO AND ISZERO PUSH2 0x1C2 JUMPI PUSH4 0x4E487B71 PUSH1 0xE0 SHL PUSH1 0x0 MSTORE PUSH1 0x11 PUSH1 0x4 MSTORE PUSH1 0x24 PUSH1 0x0 REVERT JUMPDEST POP MUL SWAP1 JUMP INVALID LOG2 PUSH5 0x6970667358 0x22 SLT KECCAK256 PUSH25 0x3365B7338C6CC2119ADAFAA4802A390BCF2BF29F3BF1272FAF SWAP7 CODECOPY 0x5D CHAINID PUSH14 0x8464736F6C634300080700330000 "
		},
		"gasEstimates": {
			"creation": {
				"codeDepositCost": "101800",
				"executionCost": "24382",
				"totalCost": "126182"
			},
			"external": {
				"calculateTax(uint256)": "432",
				"last_completed_migration()": "2262",
				"owner()": "2359",
				"setCompleted(uint256)": "24508"
			}
		},
		"methodIdentifiers": {
			"calculateTax(uint256)": "483a9310",
			"last_completed_migration()": "445df0ac",
			"owner()": "8da5cb5b",
			"setCompleted(uint256)": "fdacd576"
		}
	},
	"abi": [
		{
			"inputs": [
				{
					"internalType": "uint256",
					"name": "_value",
					"type": "uint256"
				}
			],
			"name": "calculateTax",
			"outputs": [
				{
					"internalType": "uint256",
					"name": "",
					"type": "uint256"
				}
			],
			"stateMutability": "pure",
			"type": "function"
		},
		{
			"inputs": [],
			"name": "last_completed_migration",
			"outputs": [
				{
					"internalType": "uint256",
					"name": "",
					"type": "uint256"
				}
			],
			"stateMutability": "view",
			"type": "function"
		},
		{
			"inputs": [],
			"name": "owner",
			"outputs": [
				{
					"internalType": "address",
					"name": "",
					"type": "address"
				}
			],
			"stateMutability": "view",
			"type": "function"
		},
		{
			"inputs": [
				{
					"internalType": "uint256",
					"name": "completed",
					"type": "uint256"
				}
			],
			"name": "setCompleted",
			"outputs": [],
			"stateMutability": "nonpayable",
			"type": "function"
		}
	]
}